{
  "contractName": "TasksContract",
  "abi": [
    {
      "inputs": [],
      "stateMutability": "nonpayable",
      "type": "constructor"
    },
    {
      "inputs": [],
      "name": "taskCounter",
      "outputs": [
        {
          "internalType": "uint256",
          "name": "",
          "type": "uint256"
        }
      ],
      "stateMutability": "view",
      "type": "function",
      "constant": true
    },
    {
      "inputs": [
        {
          "internalType": "uint256",
          "name": "",
          "type": "uint256"
        }
      ],
      "name": "tasks",
      "outputs": [
        {
          "internalType": "uint256",
          "name": "id",
          "type": "uint256"
        },
        {
          "internalType": "string",
          "name": "title",
          "type": "string"
        },
        {
          "internalType": "string",
          "name": "description",
          "type": "string"
        },
        {
          "internalType": "bool",
          "name": "done",
          "type": "bool"
        },
        {
          "internalType": "uint256",
          "name": "createdAt",
          "type": "uint256"
        }
      ],
      "stateMutability": "view",
      "type": "function",
      "constant": true
    },
    {
      "inputs": [
        {
          "internalType": "string",
          "name": "_title",
          "type": "string"
        },
        {
          "internalType": "string",
          "name": "_description",
          "type": "string"
        }
      ],
      "name": "createTask",
      "outputs": [],
      "stateMutability": "nonpayable",
      "type": "function"
    },
    {
      "inputs": [
        {
          "internalType": "uint256",
          "name": "_id",
          "type": "uint256"
        },
        {
          "internalType": "string",
          "name": "_title",
          "type": "string"
        },
        {
          "internalType": "string",
          "name": "_description",
          "type": "string"
        }
      ],
      "name": "updateTask",
      "outputs": [],
      "stateMutability": "nonpayable",
      "type": "function"
    },
    {
      "inputs": [
        {
          "internalType": "uint256",
          "name": "_id",
          "type": "uint256"
        }
      ],
      "name": "deleteTask",
      "outputs": [],
      "stateMutability": "nonpayable",
      "type": "function"
    },
    {
      "inputs": [
        {
          "internalType": "uint256",
          "name": "_id",
          "type": "uint256"
        }
      ],
      "name": "toggleDone",
      "outputs": [],
      "stateMutability": "nonpayable",
      "type": "function"
    }
  ],
  "bytecode": "0x6080604052600080553480156200001557600080fd5b50620000926040518060400160405280600481526020017f54657374000000000000000000000000000000000000000000000000000000008152506040518060400160405280601f81526020017f546172656120646520656a656d706c6f2e2e2048656c6c6f20576f726c6421008152506200015860201b60201c565b620000f26040518060400160405280600c81526020017f4275656e612054617265612100000000000000000000000000000000000000008152506040518060600160405280602581526020016200100f602591396200015860201b60201c565b620001526040518060400160405280601281526020017f43657272616e646f206c612073656d616e6100000000000000000000000000008152506040518060800160405280605c815260200162001034605c91396200015860201b60201c565b620003c6565b6000808154809291906200016c906200031a565b91905055506040518060a001604052806000548152602001838152602001828152602001600015158152602001428152506001600080548152602001908152602001600020600082015181600001556020820151816001019080519060200190620001d99291906200022a565b506040820151816002019080519060200190620001f89291906200022a565b5060608201518160030160006101000a81548160ff021916908315150217905550608082015181600401559050505050565b8280546200023890620002e4565b90600052602060002090601f0160209004810192826200025c5760008555620002a8565b82601f106200027757805160ff1916838001178555620002a8565b82800160010185558215620002a8579182015b82811115620002a75782518255916020019190600101906200028a565b5b509050620002b79190620002bb565b5090565b5b80821115620002d6576000816000905550600101620002bc565b5090565b6000819050919050565b60006002820490506001821680620002fd57607f821691505b6020821081141562000314576200031362000397565b5b50919050565b60006200032782620002da565b91507fffffffffffffffffffffffffffffffffffffffffffffffffffffffffffffffff8214156200035d576200035c62000368565b5b600182019050919050565b7f4e487b7100000000000000000000000000000000000000000000000000000000600052601160045260246000fd5b7f4e487b7100000000000000000000000000000000000000000000000000000000600052602260045260246000fd5b610c3980620003d66000396000f3fe608060405234801561001057600080fd5b50600436106100625760003560e01c8063292a458514610067578063560f319214610083578063586717301461009f5780638d977672146100bd578063c72ef41f146100f1578063d81ef7391461010d575b600080fd5b610081600480360381019061007c91906107c1565b610129565b005b61009d60048036038101906100989190610839565b6101f5565b005b6100a7610272565b6040516100b49190610948565b60405180910390f35b6100d760048036038101906100d29190610839565b610278565b6040516100e8959493929190610963565b60405180910390f35b61010b60048036038101906101069190610866565b6103cb565b005b61012760048036038101906101229190610839565b610446565b005b60008081548092919061013b90610af1565b91905055506040518060a0016040528060005481526020018381526020018281526020016000151581526020014281525060016000805481526020019081526020016000206000820151816000015560208201518160010190805190602001906101a6929190610659565b5060408201518160020190805190602001906101c3929190610659565b5060608201518160030160006101000a81548160ff021916908315150217905550608082015181600401559050505050565b60006001600083815260200190815260200160002060000154111561026f576001600082815260200190815260200160002060008082016000905560018201600061024091906106df565b60028201600061025091906106df565b6003820160006101000a81549060ff0219169055600482016000905550505b50565b60005481565b60016020528060005260406000206000915090508060000154908060010180546102a190610a8e565b80601f01602080910402602001604051908101604052809291908181526020018280546102cd90610a8e565b801561031a5780601f106102ef5761010080835404028352916020019161031a565b820191906000526020600020905b8154815290600101906020018083116102fd57829003601f168201915b50505050509080600201805461032f90610a8e565b80601f016020809104026020016040519081016040528092919081815260200182805461035b90610a8e565b80156103a85780601f1061037d576101008083540402835291602001916103a8565b820191906000526020600020905b81548152906001019060200180831161038b57829003601f168201915b5050505050908060030160009054906101000a900460ff16908060040154905085565b6000600160008581526020019081526020016000206000015411156104415781600160008581526020019081526020016000206001019080519060200190610414929190610659565b508060016000858152602001908152602001600020600201908051906020019061043f929190610659565b505b505050565b6000600160008381526020019081526020016000206040518060a00160405290816000820154815260200160018201805461048090610a8e565b80601f01602080910402602001604051908101604052809291908181526020018280546104ac90610a8e565b80156104f95780601f106104ce576101008083540402835291602001916104f9565b820191906000526020600020905b8154815290600101906020018083116104dc57829003601f168201915b5050505050815260200160028201805461051290610a8e565b80601f016020809104026020016040519081016040528092919081815260200182805461053e90610a8e565b801561058b5780601f106105605761010080835404028352916020019161058b565b820191906000526020600020905b81548152906001019060200180831161056e57829003601f168201915b505050505081526020016003820160009054906101000a900460ff161515151581526020016004820154815250509050806060015115816060019015159081151581525050806001600084815260200190815260200160002060008201518160000155602082015181600101908051906020019061060a929190610659565b506040820151816002019080519060200190610627929190610659565b5060608201518160030160006101000a81548160ff021916908315150217905550608082015181600401559050505050565b82805461066590610a8e565b90600052602060002090601f01602090048101928261068757600085556106ce565b82601f106106a057805160ff19168380011785556106ce565b828001600101855582156106ce579182015b828111156106cd5782518255916020019190600101906106b2565b5b5090506106db919061071f565b5090565b5080546106eb90610a8e565b6000825580601f106106fd575061071c565b601f01602090049060005260206000209081019061071b919061071f565b5b50565b5b80821115610738576000816000905550600101610720565b5090565b600061074f61074a846109e9565b6109c4565b90508281526020810184848401111561076b5761076a610bcc565b5b610776848285610a4c565b509392505050565b600082601f83011261079357610792610bc7565b5b81356107a384826020860161073c565b91505092915050565b6000813590506107bb81610bec565b92915050565b600080604083850312156107d8576107d7610bd6565b5b600083013567ffffffffffffffff8111156107f6576107f5610bd1565b5b6108028582860161077e565b925050602083013567ffffffffffffffff81111561082357610822610bd1565b5b61082f8582860161077e565b9150509250929050565b60006020828403121561084f5761084e610bd6565b5b600061085d848285016107ac565b91505092915050565b60008060006060848603121561087f5761087e610bd6565b5b600061088d868287016107ac565b935050602084013567ffffffffffffffff8111156108ae576108ad610bd1565b5b6108ba8682870161077e565b925050604084013567ffffffffffffffff8111156108db576108da610bd1565b5b6108e78682870161077e565b9150509250925092565b6108fa81610a36565b82525050565b600061090b82610a1a565b6109158185610a25565b9350610925818560208601610a5b565b61092e81610bdb565b840191505092915050565b61094281610a42565b82525050565b600060208201905061095d6000830184610939565b92915050565b600060a0820190506109786000830188610939565b818103602083015261098a8187610900565b9050818103604083015261099e8186610900565b90506109ad60608301856108f1565b6109ba6080830184610939565b9695505050505050565b60006109ce6109df565b90506109da8282610ac0565b919050565b6000604051905090565b600067ffffffffffffffff821115610a0457610a03610b98565b5b610a0d82610bdb565b9050602081019050919050565b600081519050919050565b600082825260208201905092915050565b60008115159050919050565b6000819050919050565b82818337600083830152505050565b60005b83811015610a79578082015181840152602081019050610a5e565b83811115610a88576000848401525b50505050565b60006002820490506001821680610aa657607f821691505b60208210811415610aba57610ab9610b69565b5b50919050565b610ac982610bdb565b810181811067ffffffffffffffff82111715610ae857610ae7610b98565b5b80604052505050565b6000610afc82610a42565b91507fffffffffffffffffffffffffffffffffffffffffffffffffffffffffffffffff821415610b2f57610b2e610b3a565b5b600182019050919050565b7f4e487b7100000000000000000000000000000000000000000000000000000000600052601160045260246000fd5b7f4e487b7100000000000000000000000000000000000000000000000000000000600052602260045260246000fd5b7f4e487b7100000000000000000000000000000000000000000000000000000000600052604160045260246000fd5b600080fd5b600080fd5b600080fd5b600080fd5b6000601f19601f8301169050919050565b610bf581610a42565b8114610c0057600080fd5b5056fea26469706673582212201581cdd461653ef3e3dd07012212a5101e07857072e0ac9c4ce794328785538c64736f6c634300080600334573746120657320756e61206275656e6120746172656120646520656a656d706c6f2e2e2e456a656d706c6f2064652074617265612070617261206d617263617220636f6d6f2066696e616c697a616461206375616e646f207465726d696e65206c612073656d616e612061637475616c206465204d61727a6f2f416272696c2e",
  "immutableReferences": {},
  "source": "// SPDX-License-Identifier: MIT\r\npragma solidity ^0.8.6;\r\n\r\n\r\ncontract TasksContract {\r\n\r\n    uint public taskCounter = 0;\r\n\r\n    constructor() {\r\n        createTask(\"Test\", \"Tarea de ejemplo.. Hello World!\");\r\n        createTask(\"Buena Tarea!\", \"Esta es una buena tarea de ejemplo...\");\r\n        createTask(\"Cerrando la semana\", \"Ejemplo de tarea para marcar como finalizada cuando termine la semana actual de Marzo/Abril.\");\r\n    }\r\n\r\n    struct Task {\r\n        uint id;\r\n        string title;\r\n        string description;\r\n        bool done;\r\n        uint256 createdAt; // Timestamp (uint and uint256 are equivalents)\r\n    }\r\n\r\n    mapping(uint => Task) public tasks;\r\n\r\n    function createTask(string memory _title, string memory _description) public {\r\n        taskCounter++;\r\n        tasks[taskCounter] = Task(taskCounter, _title, _description, false, block.timestamp);\r\n    }\r\n\r\n    function updateTask(uint _id, string memory _title, string memory _description) public {\r\n        if(tasks[_id].id > 0){\r\n            tasks[_id].title = _title;\r\n            tasks[_id].description = _description;\r\n        }\r\n    }\r\n\r\n    function deleteTask(uint _id) public {\r\n        if(tasks[_id].id > 0){\r\n            delete tasks[_id];\r\n        }\r\n    }\r\n\r\n    function toggleDone(uint _id) public {\r\n        Task memory _task = tasks[_id];\r\n        _task.done = !_task.done;\r\n        tasks[_id] = _task;\r\n    }\r\n}",
  "sourcePath": "C:\\Work\\dapps\\tasks-dapp\\truffle\\contracts\\TasksContract.sol",
  "compiler": {
    "name": "solc",
    "version": "0.8.6+commit.11564f7e.Emscripten.clang"
  },
  "schemaVersion": "3.4.6",
  "updatedAt": "2022-03-31T19:43:49.182Z",
  "networkType": "ethereum",
  "devdoc": {
    "kind": "dev",
    "methods": {},
    "version": 1
  },
  "userdoc": {
    "kind": "user",
    "methods": {},
    "version": 1
  }
}