{
  "contractName": "TasksContract",
  "abi": [
    {
      "inputs": [],
      "stateMutability": "nonpayable",
      "type": "constructor"
    },
    {
      "inputs": [],
      "name": "taskCounter",
      "outputs": [
        {
          "internalType": "uint256",
          "name": "",
          "type": "uint256"
        }
      ],
      "stateMutability": "view",
      "type": "function"
    },
    {
      "inputs": [
        {
          "internalType": "uint256",
          "name": "",
          "type": "uint256"
        }
      ],
      "name": "tasks",
      "outputs": [
        {
          "internalType": "uint256",
          "name": "id",
          "type": "uint256"
        },
        {
          "internalType": "string",
          "name": "title",
          "type": "string"
        },
        {
          "internalType": "string",
          "name": "description",
          "type": "string"
        },
        {
          "internalType": "bool",
          "name": "done",
          "type": "bool"
        },
        {
          "internalType": "uint256",
          "name": "createdAt",
          "type": "uint256"
        }
      ],
      "stateMutability": "view",
      "type": "function"
    },
    {
      "inputs": [
        {
          "internalType": "string",
          "name": "_title",
          "type": "string"
        },
        {
          "internalType": "string",
          "name": "_description",
          "type": "string"
        }
      ],
      "name": "createTask",
      "outputs": [],
      "stateMutability": "nonpayable",
      "type": "function"
    },
    {
      "inputs": [
        {
          "internalType": "uint256",
          "name": "_id",
          "type": "uint256"
        }
      ],
      "name": "deleteTask",
      "outputs": [],
      "stateMutability": "nonpayable",
      "type": "function"
    },
    {
      "inputs": [
        {
          "internalType": "uint256",
          "name": "_id",
          "type": "uint256"
        }
      ],
      "name": "toggleDone",
      "outputs": [],
      "stateMutability": "nonpayable",
      "type": "function"
    }
  ],
  "bytecode": "0x6080604052600080553480156200001557600080fd5b50620000926040518060400160405280600481526020017f54657374000000000000000000000000000000000000000000000000000000008152506040518060400160405280601f81526020017f546172656120646520656a656d706c6f2e2e2048656c6c6f20576f726c6421008152506200015860201b60201c565b620000f26040518060400160405280600c81526020017f4275656e6120546172656121000000000000000000000000000000000000000081525060405180606001604052806025815260200162000ee2602591396200015860201b60201c565b620001526040518060400160405280601281526020017f43657272616e646f206c612073656d616e6100000000000000000000000000008152506040518060800160405280605c815260200162000f07605c91396200015860201b60201c565b620003c6565b6000808154809291906200016c906200031a565b91905055506040518060a001604052806000548152602001838152602001828152602001600015158152602001428152506001600080548152602001908152602001600020600082015181600001556020820151816001019080519060200190620001d99291906200022a565b506040820151816002019080519060200190620001f89291906200022a565b5060608201518160030160006101000a81548160ff021916908315150217905550608082015181600401559050505050565b8280546200023890620002e4565b90600052602060002090601f0160209004810192826200025c5760008555620002a8565b82601f106200027757805160ff1916838001178555620002a8565b82800160010185558215620002a8579182015b82811115620002a75782518255916020019190600101906200028a565b5b509050620002b79190620002bb565b5090565b5b80821115620002d6576000816000905550600101620002bc565b5090565b6000819050919050565b60006002820490506001821680620002fd57607f821691505b6020821081141562000314576200031362000397565b5b50919050565b60006200032782620002da565b91507fffffffffffffffffffffffffffffffffffffffffffffffffffffffffffffffff8214156200035d576200035c62000368565b5b600182019050919050565b7f4e487b7100000000000000000000000000000000000000000000000000000000600052601160045260246000fd5b7f4e487b7100000000000000000000000000000000000000000000000000000000600052602260045260246000fd5b610b0c80620003d66000396000f3fe608060405234801561001057600080fd5b50600436106100575760003560e01c8063292a45851461005c578063560f31921461007857806358671730146100945780638d977672146100b2578063d81ef739146100e6575b600080fd5b6100766004803603810190610071919061071f565b610102565b005b610092600480360381019061008d9190610797565b6101ce565b005b61009c61024b565b6040516100a9919061081b565b60405180910390f35b6100cc60048036038101906100c79190610797565b610251565b6040516100dd959493929190610836565b60405180910390f35b61010060048036038101906100fb9190610797565b6103a4565b005b600080815480929190610114906109c4565b91905055506040518060a00160405280600054815260200183815260200182815260200160001515815260200142815250600160008054815260200190815260200160002060008201518160000155602082015181600101908051906020019061017f9291906105b7565b50604082015181600201908051906020019061019c9291906105b7565b5060608201518160030160006101000a81548160ff021916908315150217905550608082015181600401559050505050565b6000600160008381526020019081526020016000206000015411156102485760016000828152602001908152602001600020600080820160009055600182016000610219919061063d565b600282016000610229919061063d565b6003820160006101000a81549060ff0219169055600482016000905550505b50565b60005481565b600160205280600052604060002060009150905080600001549080600101805461027a90610961565b80601f01602080910402602001604051908101604052809291908181526020018280546102a690610961565b80156102f35780601f106102c8576101008083540402835291602001916102f3565b820191906000526020600020905b8154815290600101906020018083116102d657829003601f168201915b50505050509080600201805461030890610961565b80601f016020809104026020016040519081016040528092919081815260200182805461033490610961565b80156103815780601f1061035657610100808354040283529160200191610381565b820191906000526020600020905b81548152906001019060200180831161036457829003601f168201915b5050505050908060030160009054906101000a900460ff16908060040154905085565b6000600160008381526020019081526020016000206040518060a0016040529081600082015481526020016001820180546103de90610961565b80601f016020809104026020016040519081016040528092919081815260200182805461040a90610961565b80156104575780601f1061042c57610100808354040283529160200191610457565b820191906000526020600020905b81548152906001019060200180831161043a57829003601f168201915b5050505050815260200160028201805461047090610961565b80601f016020809104026020016040519081016040528092919081815260200182805461049c90610961565b80156104e95780601f106104be576101008083540402835291602001916104e9565b820191906000526020600020905b8154815290600101906020018083116104cc57829003601f168201915b505050505081526020016003820160009054906101000a900460ff16151515158152602001600482015481525050905080606001511581606001901515908115158152505080600160008481526020019081526020016000206000820151816000015560208201518160010190805190602001906105689291906105b7565b5060408201518160020190805190602001906105859291906105b7565b5060608201518160030160006101000a81548160ff021916908315150217905550608082015181600401559050505050565b8280546105c390610961565b90600052602060002090601f0160209004810192826105e5576000855561062c565b82601f106105fe57805160ff191683800117855561062c565b8280016001018555821561062c579182015b8281111561062b578251825591602001919060010190610610565b5b509050610639919061067d565b5090565b50805461064990610961565b6000825580601f1061065b575061067a565b601f016020900490600052602060002090810190610679919061067d565b5b50565b5b8082111561069657600081600090555060010161067e565b5090565b60006106ad6106a8846108bc565b610897565b9050828152602081018484840111156106c9576106c8610a9f565b5b6106d484828561091f565b509392505050565b600082601f8301126106f1576106f0610a9a565b5b813561070184826020860161069a565b91505092915050565b60008135905061071981610abf565b92915050565b6000806040838503121561073657610735610aa9565b5b600083013567ffffffffffffffff81111561075457610753610aa4565b5b610760858286016106dc565b925050602083013567ffffffffffffffff81111561078157610780610aa4565b5b61078d858286016106dc565b9150509250929050565b6000602082840312156107ad576107ac610aa9565b5b60006107bb8482850161070a565b91505092915050565b6107cd81610909565b82525050565b60006107de826108ed565b6107e881856108f8565b93506107f881856020860161092e565b61080181610aae565b840191505092915050565b61081581610915565b82525050565b6000602082019050610830600083018461080c565b92915050565b600060a08201905061084b600083018861080c565b818103602083015261085d81876107d3565b9050818103604083015261087181866107d3565b905061088060608301856107c4565b61088d608083018461080c565b9695505050505050565b60006108a16108b2565b90506108ad8282610993565b919050565b6000604051905090565b600067ffffffffffffffff8211156108d7576108d6610a6b565b5b6108e082610aae565b9050602081019050919050565b600081519050919050565b600082825260208201905092915050565b60008115159050919050565b6000819050919050565b82818337600083830152505050565b60005b8381101561094c578082015181840152602081019050610931565b8381111561095b576000848401525b50505050565b6000600282049050600182168061097957607f821691505b6020821081141561098d5761098c610a3c565b5b50919050565b61099c82610aae565b810181811067ffffffffffffffff821117156109bb576109ba610a6b565b5b80604052505050565b60006109cf82610915565b91507fffffffffffffffffffffffffffffffffffffffffffffffffffffffffffffffff821415610a0257610a01610a0d565b5b600182019050919050565b7f4e487b7100000000000000000000000000000000000000000000000000000000600052601160045260246000fd5b7f4e487b7100000000000000000000000000000000000000000000000000000000600052602260045260246000fd5b7f4e487b7100000000000000000000000000000000000000000000000000000000600052604160045260246000fd5b600080fd5b600080fd5b600080fd5b600080fd5b6000601f19601f8301169050919050565b610ac881610915565b8114610ad357600080fd5b5056fea26469706673582212207bd81dd9e95e1277ee7d94d2fae13c500a70b59940d950a45d6139d67950073764736f6c634300080600334573746120657320756e61206275656e6120746172656120646520656a656d706c6f2e2e2e456a656d706c6f2064652074617265612070617261206d617263617220636f6d6f2066696e616c697a616461206375616e646f207465726d696e65206c612073656d616e612061637475616c206465204d61727a6f2f416272696c2e",
  "immutableReferences": {},
  "source": "// SPDX-License-Identifier: MIT\r\npragma solidity ^0.8.6;\r\n\r\n\r\ncontract TasksContract {\r\n\r\n    uint public taskCounter = 0;\r\n\r\n    constructor() {\r\n        createTask(\"Test\", \"Tarea de ejemplo.. Hello World!\");\r\n        createTask(\"Buena Tarea!\", \"Esta es una buena tarea de ejemplo...\");\r\n        createTask(\"Cerrando la semana\", \"Ejemplo de tarea para marcar como finalizada cuando termine la semana actual de Marzo/Abril.\");\r\n    }\r\n\r\n    struct Task {\r\n        uint id;\r\n        string title;\r\n        string description;\r\n        bool done;\r\n        uint256 createdAt; // Timestamp (uint and uint256 are equivalents)\r\n    }\r\n\r\n    mapping(uint => Task) public tasks;\r\n\r\n    function createTask(string memory _title, string memory _description) public {\r\n        taskCounter++;\r\n        tasks[taskCounter] = Task(taskCounter, _title, _description, false, block.timestamp);\r\n    }\r\n\r\n    function deleteTask(uint _id) public {\r\n        if(tasks[_id].id > 0){\r\n            delete tasks[_id];\r\n        }\r\n    }\r\n\r\n    function toggleDone(uint _id) public {\r\n        Task memory _task = tasks[_id];\r\n        _task.done = !_task.done;\r\n        tasks[_id] = _task;\r\n    }\r\n}",
  "sourcePath": "C:\\work\\3.0\\discord\\chat\\truffle\\contracts\\TasksContract.sol",
  "compiler": {
    "name": "solc",
    "version": "0.8.6+commit.11564f7e.Emscripten.clang"
  },
  "schemaVersion": "3.4.4",
  "updatedAt": "2022-03-30T20:22:08.320Z",
  "devdoc": {
    "kind": "dev",
    "methods": {},
    "version": 1
  },
  "userdoc": {
    "kind": "user",
    "methods": {},
    "version": 1
  }
}